:020000040800F2
:10000000E0080020CD010008ED1A00085D16000888
:10001000E91A0008D30200084D1C00080000000087
:10002000000000000000000000000000F31A0008BB
:10003000D702000800000000F11A0008F51A0008B5
:10004000E7010008E7010008E7010008E7010008F0
:10005000E7010008E7010008E7010008E7010008E0
:10006000E7010008E7010008E7010008E7010008D0
:10007000E7010008E7010008E7010008E7010008C0
:10008000E7010008E7010008E7010008E7010008B0
:10009000E7010008E7010008E7010008E7010008A0
:1000A000E7010008E7010008E7010008E701000890
:1000B000E7010008E7010008E7010008E701000880
:1000C000E7010008E7010008E7010008E701000870
:1000D000E7010008E7010008E7010008E701000860
:1000E000E7010008E7010008E7010008E701000850
:1000F000E7010008E7010008E7010008E701000840
:10010000E7010008E7010008E7010008E70100082F
:10011000E7010008E7010008E7010008E70100081F
:10012000E7010008E7010008E7010008E70100080F
:1001300000F002F800F03AF80AA090E8000C8244BF
:100140008344AAF10107DA4501D100F02FF8AFF29C
:10015000090EBAE80F0013F0010F18BFFB1A43F0A5
:1001600001031847D01E0000F01E0000103A24BF03
:1001700078C878C1FAD8520724BF30C830C144BF0C
:1001800004680C607047000000230024002500264E
:10019000103A28BF78C1FBD8520728BF30C148BFEA
:1001A0000B6070471FB51FBD10B510BD00F058F8AB
:1001B0001146FFF7F7FF01F0BDFE00F076F803B43B
:1001C000FFF7F2FF03BC00F07DF80000094880470C
:1001D00009480047FEE7FEE7FEE7FEE7FEE7FEE729
:1001E000FEE7FEE7FEE7FEE704480549054A064B41
:1001F00070470000FD1A000831010008E0020020ED
:10020000E0080020E0040020E00400204FF000029D
:1002100000B5134694469646203922BFA0E80C50FC
:10022000A0E80C50B1F12001BFF4F7AF090728BFD7
:10023000A0E80C5048BF0CC05DF804EB890028BF53
:1002400040F8042B08BF704748BF20F8022B11F07C
:10025000804F18BF00F8012B7047704770477047F8
:10026000754600F02BF8AE4605006946534620F06F
:100270000700854618B020B5FFF7B6FFBDE820405F
:100280004FF000064FF000074FF000084FF0000B52
:1002900021F00701AC46ACE8C009ACE8C009ACE805
:1002A000C009ACE8C0098D46704710B50446AFF3ED
:1002B00000802046BDE81040FFF781BF004870472E
:1002C0008002002001491820ABBEFEE72600020094
:1002D000704700BFFEE7704772B600BFFEE7000040
:1002E00070B5044600F0B6F906462546681C10B104
:1002F00004480078054400BF00F0ACF9801BA84218
:10030000FAD370BD080000202DE9F847024600230B
:100310009C467BE14FF0010808FA03F4D1F8008015
:1003200008EA0400A0427DD1DFF8F4A2D1F80480ED
:10033000A8EB0A09D0453AD014DCB8F1030F50D02D
:1003400009DCB8F1000F31D0B8F1010F1CD0B8F1C1
:10035000020F49D120E0B8F1110F18D0B8F1120FF7
:1003600042D11EE0B9F5881F25D006DCB9F5803FE3
:1003700020D0B9F5801F37D11AE0B9F5001F18D089
:10038000B9F5041F30D117E0D1F80CC02DE0D1F839
:100390000C8008F1040C28E0D1F80C8008F1080C5E
:1003A00023E0D1F80C8008F10C0C1EE000BF00BF68
:1003B00000BF00BF00BF00BFD1F80880B8F1000F38
:1003C00002D14FF0040C0BE0D1F80880B8F1010F16
:1003D00003D14FF0080C146102E04FF0080C546197
:1003E00003E04FF0000C00E000BF00BFFF2801D881
:1003F000904601E002F104084646FF2802D84FEA81
:10040000830803E0A3F108084FEA88084746D6F8B6
:1004100000804FF00F0909FA07F928EA09080CFAD9
:1004200007F900E07AE048EA0908C6F80080D1F848
:10043000048008F08058B8F1805F6FD100BFDFF80A
:10044000E481D8F8188048F00108DFF8D891C9F89D
:100450001880C846D8F8188008F00108CDF8008048
:1004600000BF00BF4FEAB9384FEA930958F8295046
:100470004FEA83784FEA18794FF00F0808FA09F825
:1004800025EA0805DFF8A081424502D14FF00008B7
:1004900024E0DFF89881424502D14FF001081DE0C9
:1004A000DFF88C81424502D14FF0020816E0DFF8F8
:1004B0008481424502D14FF003080FE0DFF87881D4
:1004C000424502D14FF0040808E0DFF87081424550
:1004D00002D14FF0050801E04FF006084FEA83799A
:1004E0004FEA197908FA09F848EA0505DFF850815A
:1004F0004FEA930948F82950D1F8048008F480188D
:10050000B8F5801F0BD1DFF83C81D8F8008048EAAD
:100510000008DFF83091C9F800800AE075E0DFF8E4
:100520002481D8F8008028EA0008DFF81891C9F87B
:100530000080D1F8048008F40018B8F5001F0ED12F
:10054000DFF8008108F10408D8F8008048EA0008C4
:10055000DFF8F09009F10409C9F800800DE0DFF838
:10056000E48008F10408D8F8008028EA0008DFF8E1
:10057000D49009F10409C9F80080D1F8048008F486
:100580000038B8F5003F0ED1DFF8B880A8F10408B4
:10059000D8F8008048EA0008DFF8A890A9F104091B
:1005A000C9F800800DE0DFF89C80A8F10408D8F8B5
:1005B000008028EA0008DFF88C90A9F10409C9F846
:1005C0000080D1F8048008F48038B8F5803F0ED15F
:1005D000DFF87080A8F10808D8F8008048EA000821
:1005E000DFF86090A9F10809C9F800800DE0DFF894
:1005F0005480A8F10808D8F8008028EA0008DFF83D
:100600004490A9F10809C9F800805B1CD1F800806A
:1006100028FA03F8B8F1000F7FF47CAEBDE8F88744
:10062000000011100010024000080140000C0140C1
:10063000001001400014014000180140001C01405E
:1006400008000140080401400AB1016101E00B0407
:1006500003617047014800687047000000000020F7
:100660000348006803490978084401490860704755
:10067000000000200800002010B50848006840F085
:10068000100006490860032000F098F80F2000F0E1
:1006900007F800F02BF8002010BD000000200240F9
:1006A00070B504460E4800784FF47A71B1FBF0F053
:1006B0000C490968B1FBF0F5284600F0C3FB08B10E
:1006C000012070BD102C07D200222146501E00F0E0
:1006D00037F80548046001E00120F2E70020F0E768
:1006E000080000200C0000200400002008B500BF16
:1006F0001148806940F001000F498861084680690F
:1007000000F00100009000BF00BF00BF0846C069B4
:1007100040F08050C8610846C06900F080500090E9
:1007200000BF00BF00BF0549486820F0E06040F00E
:100730000070486000BF08BD00100240000001408A
:100740002DE9F05F80460D461646002701F0EAFBD2
:10075000074639462A46334601F00700C0F1070A2A
:10076000BAF1040F02D94FF0040A01E0C0F1070A00
:10077000D14600F1040ABAF1070F02D24FF0000A85
:1007800001E0A0F1030AD4464FF0010A0AFA09FA7F
:10079000AAF1010A0AEA020A0AFA0CFA4FF0010B5E
:1007A0000BFA0CFBABF1010B0BEA030B4AEA0B044F
:1007B0002146404601F0A2FBBDE8F09F00BF00F0DB
:1007C0000702064B19684FF6FF031940044B0B4311
:1007D00043EA0221014B196000BF70470CED00E0B5
:1007E0000000FA0570B504460D460CB9012070BD35
:1007F0005A48006800F00700A8420ED25748006827
:1008000020F007002843554908600846006800F0BA
:100810000700A84201D00120E9E7207800F002009B
:1008200002281DD1207800F00400042805D14C488E
:10083000406840F4E0604A494860207800F00800D1
:10084000082805D14648406840F460504449486053
:100850004348406820F0F000A168084340494860E0
:10086000207800F0010078B36068012806D13C4888
:10087000006800F4003090B90120B8E760680228F1
:1008800006D13748006800F0007040B90120AEE79B
:100890003348006800F0020008B90120A7E730489B
:1008A000406820F00300616808432D494860FFF765
:1008B000D1FE064609E0FFF7CDFE801B41F28831EC
:1008C000884202D9032092E707E02548406800F0FB
:1008D0000C006168B0EB810FEDD12048006800F09A
:1008E0000700A8420ED91D48006820F007002843E1
:1008F0001A4908600846006800F00700A84201D0C5
:10090000012074E7207800F00400042807D114487F
:10091000406820F4E060E1680843114948602078AD
:1009200000F00800082808D10D48406820F4605005
:10093000216940EAC1000A49486000F019F80849F5
:100940004968C1F30311074A515CC8400649086071
:1009500006480068FFF7A4FE002048E70020024098
:10096000001002401A2000080C00002004000020A3
:1009700070B500210022002400230020134D696877
:1009800001F00C05EDB1042D02D0082D1AD101E0C3
:100990000F4819E00F4DC1F38346AB5D01F480357C
:1009A00055B10A4D6D68C5F340450B4E725D084D5B
:1009B0005D43B5FBF2F402E0084D03FB05F420466D
:1009C00002E000BF024800BF00BF70BD001002403F
:1009D00000127A00082000081820000800093D00D5
:1009E000F8B504460CB90120F8BD207800F00100EC
:1009F000002878D0F848406800F00C0004280CD09B
:100A0000F548406800F00C00082811D1F248406811
:100A100000F48030B0F5803F0AD1EF48006800F460
:100A2000003000285FD0606800285CD10120DBE73F
:100A300000BF6068B0F5803F06D1E748006840F429
:100A40008030E549086028E0606858B9E2480068ED
:100A500020F48030E04908600846006820F48020D7
:100A600008601AE06068B0F5A02F0BD1DA48006882
:100A700040F48020D84908600846006840F480307F
:100A800008600AE0D448006820F48030D249086049
:100A90000846006820F48020086000BF606888B1C4
:100AA000FFF7D8FD054606E0FFF7D4FD401B64289C
:100AB00001D9032098E7C848006800F400300028F6
:100AC000F2D010E0FFF7C6FD054606E0FFF7C2FDD5
:100AD000401B642801D9032086E7BF48006800F462
:100AE00000300028F2D1207800F00200022857D10F
:100AF000B948406800F00C0050B1B748406800F0B9
:100B00000C00082818D1B448406800F4803098B927
:100B1000B148006800F0020020B12069012801D02E
:100B2000012061E7AC48006820F0F800616940EA04
:100B3000C100A949086033E02069E8B10120A74954
:100B40000860FFF787FD054606E0FFF783FD401BC1
:100B5000022801D9032047E79F48006800F00200FF
:100B60000028F2D09C48006820F0F800616940EA53
:100B7000C1009949086013E0002098490860FFF718
:100B800069FD054606E0FFF765FD401B022801D917
:100B9000032029E79048006800F002000028F2D105
:100BA000207800F0080008282DD1A069B8B10120F4
:100BB0008B490860FFF74EFD054606E0FFF74AFD4A
:100BC000401B022801D903200EE78348406A00F049
:100BD00002000028F2D0012001F0DEF813E000202E
:100BE0007F490860FFF736FD054606E0FFF732FD56
:100BF000401B022801D90320F6E67748406A00F03E
:100C000002000028F2D1207800F00400042873D1FB
:100C100000277148C06900F0805070B900BF6E486D
:100C2000C06940F080506C49C8610846C06900F056
:100C30008050009000BF00BF01276A48006800F4A0
:100C40008070B0B96748006840F4807065490860FA
:100C5000FFF700FD054606E0FFF7FCFC401B64289B
:100C600001D90320C0E65F48006800F480700028C6
:100C7000F2D000BFE068012806D15748006A40F072
:100C800001005549086227E0E06858B95248006AF7
:100C900020F00100504908620846006A20F0040074
:100CA000086219E0E06805280BD14B48006A40F063
:100CB0000400494908620846006A40F001000862E1
:100CC0000AE04548006A20F00100434908620846EE
:100CD000006A20F00400086200BFE068A0B1FFF7DE
:100CE000B9FC054609E0FFF7B5FC401B41F288312D
:100CF000884202D9032077E622E03748006A00F0F4
:100D000002000028EFD012E0FFF7A4FC054608E03F
:100D1000FFF7A0FC401B41F28831884201D9032033
:100D200062E62D48006A00F002000028F0D1012F91
:100D300005D12948C06920F080502749C86100BF0B
:100D4000E069C8B32448406800F00C00082860D06F
:100D5000E069022848D1002020490866FFF77AFCA4
:100D6000054606E0FFF776FC401B022801D9032068
:100D70003AE61948006800F000700028F2D1206AB5
:100D8000B0F5803F07D11448406820F40030A168D6
:100D9000084311494860D4E9080108430E494968ED
:100DA00021F4741108430C49486001200B4908667E
:100DB000FFF750FC054607E03DE0FFF74BFC401B0A
:100DC000022801D903200FE60348006800F00070F4
:100DD0000028F2D02FE00000001002400000424244
:100DE0008004424200700040002014490866FFF76A
:100DF00031FC054606E0FFF72DFC401B022801D917
:100E00000320F1E50E48006800F000700028F2D1E0
:100E100011E0E069012800D1E6E50948466806F4DA
:100E20008031206A814204D106F47011606A8142E7
:100E300001D00120D8E50020D6E5000000004242A4
:100E40000010024070B504462546681EB0F1807F50
:100E500001D301200FE0681E4FF0E02148610F210F
:100E60004FF0FF3001F04AF800204FF0E021886198
:100E700007200861002070BD10B50346002200BFA6
:100E800093F83C00012801D1022010BD012083F815
:100E90003C0000BF22F0FF00CC6840EA040222F4CC
:100EA00040708C6840EA040222F480604C6840EA9A
:100EB000040222F400600C6840EA040222F480502C
:100EC0000C6940EA040222F400504C6940EA040232
:100ED00022F48040CC6940EA04021868426400BFF2
:100EE000002083F83C0000BF00BFCEE730B50246CB
:100EF0000B4600BF92F83C00012801D1022030BD12
:100F0000012082F83C0000BF022082F83D001068FA
:100F100044681068816824F07004186804431068FD
:100F20004460144D1068A84213D0134D1068A842B5
:100F30000FD01068B0F1804F0BD0104D1068A84250
:100F400007D00F4D1068A84203D00E4D1068A8427C
:100F500005D121F0800158680143106881600120AB
:100F600082F83D0000BF002082F83C0000BF00BFB7
:100F7000C5E70000002C014000340140000400409F
:100F800000080040000C00402DE9F04104460D46E9
:100F900014B90120BDE8F08194F83D0028B9002083
:100FA00084F83C00204600F051F8022084F83D000F
:100FB0002068806844F20701884321688860211D09
:100FC000206800F09DFD2068D0F8088020688669C0
:100FD0002068076A286840EA080840F20330864320
:100FE000A969A86840EA0120064340F60C40864300
:100FF0004FF2F0008643E969E86840EA01200643C1
:1010000028690001296A40EA0130064327F02207D7
:101010006969686840EA011007432068C0F80880E1
:101020002068866120680762012084F8460084F801
:101030003E0001213F200155012084F84200432059
:101040000155012084F83D000020A3E710B586B0CB
:101050000446002002900390049005902068B0F1AF
:10106000804F47D100BF6748C06940F00100654923
:10107000C8610846C06900F00100019000BF00BFD0
:1010800000BF0846806940F0040088610846806916
:1010900000F00400019000BF00BF00BF0846806957
:1010A00040F0080088610846806900F0080001905F
:1010B00000BF00BF4FF400400290002003900120C9
:1010C000049002A95048FFF71FF908200290002061
:1010D00003900120049002A94C48FFF715F900BFC6
:1010E0004B49486820F4407040F0E06040F4807064
:1010F000486085E047492068884225D100BF4148C3
:10110000C06940F002003F49C8610846C06900F06C
:101110000200019000BF00BF00BF0846806940F098
:10112000040088610846806900F00400019000BF57
:1011300000BFC0200290002003900120049002A96B
:101140003148FFF7E1F85BE03349206888422ED14F
:1011500000BF2C48C06940F004002A49C861084615
:10116000C06900F00400019000BF00BF00BF084646
:10117000806940F0200088610846806900F0200006
:10118000019000BF00BF4FF4405002900020039038
:101190000120049002A92148FFF7B6F800BF1C49BE
:1011A000486840F0E06040F48050486028E01C4906
:1011B0002068884224D100BF1248C06940F008006E
:1011C0001049C8610846C06900F00800019000BFDE
:1011D00000BF00BF0846806940F0040088610846EF
:1011E000806900F00400019000BF00BF032002905E
:1011F000002003900120049002A90348FFF784F81F
:1012000006B010BD0010024000080140000C014073
:1012100000000140000400400008004000140140AC
:10122000000C00402DE9F04304460D4694F83E6062
:101230003F20075D94F84280432010F804906DB978
:10124000012E02D1B8F1010F02D00120BDE8F083D8
:10125000022084F83E0084F8420025E0042D0CD1E1
:10126000012F02D1B9F1010F01D00120EEE70221D7
:101270003F2001554320015516E0012E07D1012FD3
:1012800005D1B8F1010F02D1B9F1010F01D0012050
:10129000DCE7022084F83E0002213F2001550220B5
:1012A00084F842004320015515B1042D0CD105E00E
:1012B00001220021206800F079FC10E001220421C5
:1012C000206800F073FC0AE001220021206800F091
:1012D0006DFC01220421206800F068FC00BF00BF03
:1012E0002068006840F00100216808600020ADE738
:1012F00010B586B00446002002900390049005903B
:1013000022492068884222D100BF2148806940F0EC
:1013100040001F4988610846806900F04000019044
:1013200000BF00BF4FF4D44002900220039005900C
:1013300002A91848FEF7E8FF00BF1749486820F0E7
:10134000C00040F0E06040F0C00048601BE013497E
:101350002068884217D100BF0D48806940F0100016
:101360000B4988610846806900F01000019000BFB9
:1013700000BF4FF47070029002200390059002A904
:101380000748FEF7C1FF06B010BD0000002C014069
:1013900000100240001801400000014000340140EC
:1013A000001001402DE9F04104460D461646002785
:1013B00000BF94F83C00012802D10220BDE8F08172
:1013C000012084F83C0000BF36B1042E1BD0082E4B
:1013D00031D00C2E5ED145E02946206800F0F0FCAB
:1013E0002068806940F00800216888612068806971
:1013F00020F0040021688861206880692969084319
:101400002168886148E02946206800F0E1FB2068F7
:10141000806940F40060216888612068806920F458
:1014200080602168886120688069296940EA01201C
:101430002168886130E02946206800F0F9FC2068C6
:10144000C06940F008002168C8612068C06920F0C8
:1014500004002168C8612068C069296908432168BF
:10146000C86119E02946206800F01EFD2068C069A7
:1014700040F400602168C8612068C06920F4806081
:101480002168C8612068C069296940EA0120216893
:10149000C86101E0012700BF00BF00BF002084F841
:1014A0003C0000BF384689E710B504460CB901205E
:1014B00010BD94F83D0028B9002084F83C00204677
:1014C00000F026F8022084F83D00211D206800F07D
:1014D00017FB012084F8460000BF84F83E0001217C
:1014E0003F200155402001554120015500BF00BF5C
:1014F000012084F842004320015544200155452035
:10150000015500BF012084F83D000020D0E7000015
:1015100008B5124A016891420DD100BF104989698E
:1015200041F400610E4A91611146896901F400613C
:10153000009100BF11E00B4A016891420DD100BF3C
:101540000749896941F40051054A91611146896949
:1015500001F40051009100BF00BF08BD002C014004
:10156000001002400034014070B504460D4615B924
:1015700094F83E000BE0042D02D13F20005D06E010
:10158000082D02D14020005D01E04120005D0128CE
:1015900001D0012070BD1DB9022084F83E000EE08C
:1015A000042D03D102213F20015508E0082D03D16D
:1015B00002214020015502E0022141200155012273
:1015C0002946206800F0F2FA1F492068884203D0BB
:1015D0001E492068884201D1012000E0002028B186
:1015E0002068406C40F40040216848641649206837
:1015F000884213D01549206888420FD02068B0F186
:10160000804F0BD012492068884207D011492068CA
:10161000884203D01049206888420CD12068806835
:1016200000F00706062E0CD02068006840F001008C
:101630002168086005E02068006840F0010021682A
:1016400008600020A6E70000002C014000340140A3
:101650000004004000080040000C004000BFFEE70E
:1016600000B585B00020019002900390049000BF67
:101670003048806940F080002E49886108468069C2
:1016800000F08000009000BF00BF00BF08468069E6
:1016900040F0040088610846806900F00400009072
:1016A00000BF00BF00BF0846806940F0400088616D
:1016B0000846806900F04000009000BF00BF00BFF6
:1016C0000846806940F0200088610846806900F083
:1016D0002000009000BF00BF00BF0846806940F0B6
:1016E000100088610846806900F01000009000BF7B
:1016F00000BF00BF0846806940F0080088610846C6
:10170000806900F00800009000BF00BF0122FF21A7
:101710000948FEF799FFFF20019001200290002068
:1017200003900220049001A90348FEF7EDFD05B0E7
:1017300000BD000000100240001C014000B591B047
:1017400000200F9010901C2108A8FEF75FFD2021BB
:101750006846FEF75BFD2F482F490860002048606F
:1017600000212D4881604FF6FF71C16000210161A9
:1017700041618161FFF798FE08B1FEF7ADFD0020E1
:101780000F9010900FA92448FFF7B0FB08B1FEF7A7
:10179000A3FD60200890002009900A900B900C9007
:1017A0000D900E90002208A91B48FFF7FBFD08B121
:1017B000FEF792FD042208A91748FFF7F3FD08B1D0
:1017C000FEF78AFD082208A91348FFF7EBFD08B1D0
:1017D000FEF782FD0C2208A90F48FFF7E3FD08B1D0
:1017E000FEF77AFD00200090019002900390049093
:1017F0004FF4005005900020079069460648FFF717
:101800003BFB08B1FEF768FD0348FFF771FD11B01F
:1018100000BD0000002C0140D000002000B58BB0BE
:10182000242102A8FEF7F2FC0020009001904FF066
:1018300080401749086000204860002114488160FA
:101840004FF6FF71C16000210161816103200290A8
:10185000002003900120049000200590069007903E
:1018600001200890002009900A9002A90848FFF77B
:101870008BFB08B1FEF730FD002000900190694617
:101880000348FFF733FB08B1FEF726FD0BB000BDA0
:101890001801002000B58BB0242102A8FEF7B6FC89
:1018A0000020009001901848184908600020486006
:1018B0000021164881604FF6FF71C160002101616F
:1018C00081610320029000200390012004900020F9
:1018D00005900690079001200890002009900A903A
:1018E00002A90A48FFF750FB08B1FEF7F5FC0020FB
:1018F0000090019069460548FFF7F8FA08B1FEF735
:10190000EBFC0BB000BD00000004004060010020B3
:1019100000B58BB0242102A8FEF778FC00200090CF
:1019200001901848184908600020486000211648B6
:1019300081604FF6FF71C160002101618161032068
:101940000290002003900120049000200590069052
:10195000079001200890002009900A9002A90A48E7
:10196000FFF712FB08B1FEF7B7FC002000900190D2
:1019700069460548FFF7BAFA08B1FEF7ADFC0BB0AF
:1019800000BD000000080040A801002000B58BB099
:10199000242102A8FEF73AFC00200090019018488C
:1019A00018490860002048600021164881604FF601
:1019B000FF71C1600021016181610320029000205C
:1019C00003900120049000200590069007900120CC
:1019D0000890002009900A9002A90A48FFF7D4FA5B
:1019E00008B1FEF779FC0020009001906946054897
:1019F000FFF77CFA08B1FEF76FFC0BB000BD0000EA
:101A0000000C0040F001002000B591B000200F90C4
:101A100010901C2108A8FEF7F9FB20216846FEF76C
:101A2000F5FB2F482F4908600020486000212D4811
:101A300081604FF6FF71C1600021016141618161E8
:101A4000FFF732FD08B1FEF747FC00200F90109021
:101A50000FA92448FFF74AFA08B1FEF73DFC6020C1
:101A60000890002009900A900B900C900D900E9019
:101A7000002208A91B48FFF795FC08B1FEF72CFCD3
:101A8000042208A91748FFF78DFC08B1FEF724FCD3
:101A9000082208A91348FFF785FC08B1FEF71CFCD3
:101AA0000C2208A90F48FFF77DFC08B1FEF714FCD3
:101AB0000020009001900290039004904FF4005099
:101AC00005900020079069460648FFF7D5F908B150
:101AD000FEF702FC0348FFF70BFC11B000BD00004D
:101AE000003401403802002000BFFEE700BFFEE7DF
:101AF0007047704710B5FEF7B3FD10BD704700008A
:101B000010B50268244B98420ED0244B98420BD05B
:101B1000B0F1804F08D0224B984205D0214B98421B
:101B200002D0214B984203D122F070024B681A4335
:101B3000194B98420ED0194B98420BD0B0F1804F00
:101B400008D0174B984205D0164B984202D0164B3E
:101B5000984203D122F44072CB681A4322F08003EA
:101B60004C6943EA040202608B68C3620B688362BB
:101B7000094B984202D0094B984201D10B6903638B
:101B800001234361036903F001031BB1036923F0DF
:101B90000103036110BD0000002C0140003401402E
:101BA0000004004000080040000C004030B501F087
:101BB0001F05012404FA05F3046A9C430462046AC5
:101BC00001F01F0502FA05F52C43046230BD000048
:101BD00030B5026A056A25F010050562436884691C
:101BE00024F4E04424F440740D6844EA052422F00F
:101BF00020028D6842EA0512124DA84200D103E08E
:101C0000114DA84207D100BF22F08002CD6842EA00
:101C1000051222F040020B4DA84202D00A4DA84204
:101C200009D123F4806323F400634D6943EA8503FB
:101C30008D6943EA8503436084614D688563026270
:101C400030BD0000002C01400034014000BFFEE721
:101C50003EB500242CE0E0B200F07AF804EB440139
:101C6000154A42F82100022004EB440102EB8101F5
:101C70000871002004EB440102EB810188600F48E9
:101C800000210F4ACDE90021029004EBC4010D4A66
:101C900002EB810000230C4A4FF07E5100F049F81E
:101CA000002004EBC401074A02EB8101C860641CF8
:101CB000042CD0DB3EBD0000A000002000007A44D0
:101CC0006F12833A100000200000484200B58FB028
:101CD000282105A8FEF79AFA14216846FEF796FA1D
:101CE0000120059000040690002007900120099033
:101CF00002200C90C1030D914FF4E0110E9105A844
:101D0000FEF76EFE08B1FEF7E7FA0F200090022002
:101D10000190002002904FF4806003900020049016
:101D200002216846FEF75EFD08B1FEF7D5FA0FB056
:101D300000BDF0B505AC70CC016042608360046208
:101D4000C5618661002707614761C760F0BD00007B
:101D5000014631B1012908D002290AD0032910D146
:101D60000BE009480068406A704708480068406A0C
:101D7000FAE707480068406AF6E706480068406AE4
:101D8000F2E70020F0E700001801002060010020C9
:101D9000A8010020F001002008B508490968C90819
:101DA0004FF47A72B1FBF2F14143009100BF00BFE2
:101DB00000994A1E00920029F9D108BD0C000020AC
:101DC00030B5026A056A25F0010505624368846939
:101DD00024F0700424F003040D682C4322F0020266
:101DE0008D682A43104DA84200D103E00F4DA84250
:101DF00006D100BF22F00802CD682A4322F0040277
:101E0000094DA84202D0094DA84207D123F480739E
:101E100023F400734D692B438D692B434360846128
:101E20004D684563026230BD002C01400034014022
:101E300030B5026A056A25F4807505624368C46995
:101E400024F0700424F003040D682C4322F4007283
:101E50008D6842EA0522124DA84200D103E0114DDF
:101E6000A84207D100BF22F40062CD6842EA0522F1
:101E700022F480620A4DA84202D00A4DA84209D13C
:101E800023F4805323F400534D6943EA05138D690D
:101E900043EA05134360C4614D68C563026230BD07
:101EA000002C01400034014030B5036A056A25F476
:101EB000805505624468C26922F4E04222F440720F
:101EC0000D6842EA052223F400538D6843EA053386
:101ED000084DA84202D0084DA84204D124F4804401
:101EE0004D6944EA85144460C2614D68056403622B
:101EF00030BD0000002C01400034014010B5002826
:101F000004DB0A07130E054A135406E00A07140EF1
:101F1000034A00F00F031B1FD45410BD00E400E07F
:101F200018ED00E002480068C0F30220704700008E
:101F30000CED00E0FEF7A0FBFFF7C8FEFFF790FBFB
:101F4000FFF724FDFFF7FAFBFFF768FCFFF7A2FCA1
:101F5000FFF7DEFCFFF758FDFFF77AFE002124486B
:101F6000FFF702FB04212248FFF7FEFA0821204870
:101F7000FFF7FAFA0C211E48FFF7F6FA00211D4878
:101F8000FFF7F2FA04211B48FFF7EEFA082119487F
:101F9000FFF7EAFA0C211748FFF7E6FA0421164882
:101FA000FFF740F904211548FFF73CF904211448D4
:101FB000FFF738F904211348FFF734F917E04FF41D
:101FC000FA700B4909684863002009490968886369
:101FD00040F6B830FEF784F90020054909684863E7
:101FE0000349096888634FF4FA60FEF779F9E6E778
:101FF000D0000020380200201801002060010020DD
:10200000A8010020F00100200203040506070809CA
:102010000A0B0C0D0E0F1010010200000000000052
:102020000000010203040607080900000000010285
:1020300003040000542000080000002010000000ED
:102040006C0100086420000810000020D008000087
:1020500088010008000000001000000001000000DE
:0420600000127A00F0
:0400000508000131BD
:00000001FF
